:1000000000400010F90F000011160000C11500009B
:10001000A11500008115000061150000000000001E
:10002000000000000000000000000000411500007A
:100030002115000000000000011500001517000048
:10004000E1140000C1140000A1140000811400009C
:1000500061140000DD1E0000AD1900004114000015
:100060009D1C00002114000001140000E113000099
:10007000C1130000A11300008113000061130000F0
:10008000411300002113000001130000E1120000E1
:10009000C1120000A11200008112000061120000D4
:1000A000411200002112000001120000E1110000C5
:1000B000C1110000A11100008111000061110000B8
:1000C000411100002111000001110000E1100000A9
:1000D000C1100000A110000081100000611000009C
:1000E00041100000000000000000000000000000BF
:1000F0000000000000000000000000000000000000
:1001000000000000000000000000000000000000EF
:1001100000000000000000000000000000000000DF
:1001200000000000000000000000000000000000CF
:1001300000000000000000000000000000000000BF
:1001400000000000000000000000000000000000AF
:10015000000000000000000000000000000000009F
:10016000000000000000000000000000000000008F
:10017000000000000000000000000000000000007F
:10018000000000000000000000000000000000006F
:10019000000000000000000000000000000000005F
:1001A000000000000000000000000000000000004F
:1001B000000000000000000000000000000000003F
:1001C000000000000000000000000000000000002F
:1001D000000000000000000000000000000000001F
:1001E000000000000000000000000000000000000F
:1001F00000000000000000000000000000000000FF
:1002000000000000000000000000000000000000EE
:1002100000000000000000000000000000000000DE
:1002200000000000000000000000000000000000CE
:1002300000000000000000000000000000000000BE
:1002400000000000000000000000000000000000AE
:10025000000000000000000000000000000000009E
:10026000000000000000000000000000000000008E
:10027000000000000000000000000000000000007E
:10028000000000000000000000000000000000006E
:10029000000000000000000000000000000000005E
:1002A000000000000000000000000000000000004E
:1002B000000000000000000000000000000000003E
:1002C000000000000000000000000000000000002E
:1002D000000000000000000000000000000000001E
:1002E000000000000000000000000000000000000E
:1002F00000000000000000000000000081F000414C
:1003000002E000BF83F0004330B54FEA41044FEAFA
:10031000430594EA050F08BF90EA020F1FBF54EA95
:10032000000C55EA020C7FEA645C7FEA655C00F031
:10033000E2804FEA5454D4EB5555B8BF6D420CDD02
:100340002C4480EA020281EA030382EA000083EA85
:10035000010180EA020281EA0303362D88BF30BD25
:1003600011F0004F4FEA01314FF4801C4CEA11317B
:1003700002D0404261EB410113F0004F4FEA0333DA
:100380004CEA133302D0524263EB430394EA050F65
:1003900000F0A780A4F10104D5F1200E0DDB02FAD4
:1003A0000EFC22FA05F2801841F1000103FA0EF268
:1003B000801843FA05F359410EE0A5F120050EF12E
:1003C000200E012A03FA0EFC28BF4CF0020C43FA5F
:1003D00005F3C01851EBE37101F0004507D54FF06C
:1003E000000EDCF1000C7EEB00006EEB0101B1F5BC
:1003F000801F1BD3B1F5001F0CD349085FEA300002
:100400004FEA3C0C04F101044FEA445212F5800F0C
:1004100080F09A80BCF1004F08BF5FEA500C50F1A9
:10042000000041EB045141EA050130BD5FEA4C0C8C
:10043000404141EB010111F4801FA4F10104E9D115
:1004400091F0000F04BF01460020B1FA81F308BF0C
:100450002033A3F10B03B3F120020CDA0C3208DDD8
:1004600002F1140CC2F10C0201FA0CF021FA02F1B3
:100470000CE002F11402D8BFC2F1200C01FA02F123
:1004800020FA0CFCDCBF41EA0C019040E41AA2BF48
:1004900001EB0451294330BD6FEA04041F3C1CDA10
:1004A0000C340EDC04F11404C4F1200220FA04F030
:1004B00001FA02F340EA030021FA04F345EA0301DA
:1004C00030BDC4F10C04C4F1200220FA02F001FA9C
:1004D00004F340EA0300294630BD21FA04F029461E
:1004E00030BD94F0000F83F4801306BF81F48011B7
:1004F0000134013D4EE77FEA645C18BF7FEA655C2A
:1005000029D094EA050F08BF90EA020F05D054EAFB
:10051000000C04BF1946104630BD91EA030F1EBF00
:100520000021002030BD5FEA545C05D14000494104
:1005300028BF41F0004130BD14F580043CBF01F5F7
:10054000801130BD01F0004545F0FE4141F47001DD
:100550004FF0000030BD7FEA645C1ABF19461046B8
:100560007FEA655C1CBF0B46024650EA013406BFB9
:1005700052EA033591EA030F41F4002130BD00BF78
:1005800090F0000F04BF0021704730B54FF4806435
:1005900004F132044FF000054FF0000150E700BFB6
:1005A00090F0000F04BF0021704730B54FF4806415
:1005B00004F1320410F0004548BF40424FF0000102
:1005C0003EE700BF42004FEAE2014FEA31014FEA45
:1005D00002701FBF12F07F4393F07F4F81F0605194
:1005E000704792F0000F14BF93F07F4F704730B503
:1005F0004FF4607401F0004521F0004120E700BF96
:1006000050EA010208BF704730B54FF000050AE01C
:1006100050EA010208BF704730B511F0004502D51D
:10062000404261EB41014FF4806404F132045FEA1F
:10063000915C3FF4DCAE4FF003025FEADC0C18BFC4
:1006400003325FEADC0C18BF033202EBDC02C2F1BA
:10065000200300FA03FC20FA02F001FA03FE40EA4C
:100660000E0021FA02F11444C1E600BF70B54FF04C
:10067000FF0C4CF4E06C1CEA11541DBF1CEA13552E
:1006800094EA0C0F95EA0C0F00F0DEF82C4481EA96
:10069000030621EA4C5123EA4C5350EA013518BFB6
:1006A00052EA033541F4801143F4801338D0A0FBA3
:1006B00002CE4FF00005E1FB02E506F00042E0FB50
:1006C00003E54FF00006E1FB03569CF0000F18BF56
:1006D0004EF0010EA4F1FF04B6F5007F64F54074FE
:1006E00004D25FEA4E0E6D4146EB060642EAC62191
:1006F00041EA55514FEAC52040EA5E504FEACE2EFE
:10070000B4F1FD0C88BFBCF5E06F1ED8BEF1004F00
:1007100008BF5FEA500E50F1000041EB045170BD7C
:1007200006F0004646EA010140EA020081EA0301C0
:10073000B4EB5C04C2BFD4EB0C0541EA045170BDBC
:1007400041F480114FF0000E013C00F3AB8014F136
:10075000360FDEBF002001F0004170BDC4F100047F
:10076000203C35DA0C341BDC04F11404C4F1200500
:1007700000FA05F320FA04F001FA05F240EA02005B
:1007800001F0004221F0004110EBD37021FA04F691
:1007900042EB06015EEA430E08BF20EAD37070BD4B
:1007A000C4F10C04C4F1200500FA04F320FA05F0AA
:1007B00001FA04F240EA020001F0004110EBD370AC
:1007C00041F100015EEA430E08BF20EAD37070BD1C
:1007D000C4F1200500FA05F24EEA020E20FA04F3F5
:1007E00001FA05F243EA020321FA04F001F00041A4
:1007F00021FA04F220EA020000EBD3705EEA430E15
:1008000008BF20EAD37070BD94F0000F0FD101F043
:100810000046400041EB010111F4801F08BF013C7C
:10082000F7D041EA060195F0000F18BF704703F0BA
:100830000046520043EB030313F4801F08BF013D41
:10084000F7D043EA0603704794EA0C0F0CEA1355FD
:1008500018BF95EA0C0F0CD050EA410618BF52EAB7
:100860004306D1D181EA030101F000414FF00000BD
:1008700070BD50EA410606BF1046194652EA4306CB
:1008800019D094EA0C0F02D150EA013613D195EA3F
:100890000C0F05D152EA03361CBF104619460AD187
:1008A00081EA030101F0004141F0FE4141F4700191
:1008B0004FF0000070BD41F0FE4141F4780170BD81
:1008C00070B54FF0FF0C4CF4E06C1CEA11541DBFE6
:1008D0001CEA135594EA0C0F95EA0C0F00F0A7F8E8
:1008E000A4EB050481EA030E52EA03354FEA013115
:1008F00000F088804FEA03334FF0805545EA131328
:1009000043EA12634FEA022245EA111545EA1065EF
:100910004FEA00260EF000419D4208BF964244F186
:10092000FD0404F5407402D25B084FEA3202B61AA5
:1009300065EB03055B084FEA32024FF480104FF479
:10094000002CB6EB020E75EB030E22BFB61A7546ED
:1009500040EA0C005B084FEA3202B6EB020E75EB80
:10096000030E22BFB61A754640EA5C005B084FEAE8
:100970003202B6EB020E75EB030E22BFB61A7546B5
:1009800040EA9C005B084FEA3202B6EB020E75EBC0
:10099000030E22BFB61A754640EADC0055EA060E81
:1009A00018D04FEA051545EA16754FEA06164FEAC4
:1009B000C30343EA52734FEAC2025FEA1C1CC0D170
:1009C00011F4801F0BD141EA00014FF000004FF0FD
:1009D000004CB6E711F4801F04BF01430020B4F1BE
:1009E000FD0C88BFBCF5E06F3FF6AFAEB5EB030C76
:1009F00004BFB6EB020C5FEA500C50F1000041EB73
:100A0000045170BD0EF0004E4EEA113114EB5C043F
:100A1000C2BFD4EB0C0541EA045170BD41F4801112
:100A20004FF0000E013C90E645EA060E8DE60CEA1A
:100A3000135594EA0C0F08BF95EA0C0F3FF43BAF37
:100A400094EA0C0F0AD150EA01347FF434AF95EAEE
:100A50000C0F7FF425AF104619462CE795EA0C0FD2
:100A600006D152EA03353FF4FDAE1046194622E79F
:100A700050EA410618BF52EA43067FF4C5AE50EA79
:100A800041047FF40DAF52EA43057FF4EBAE12E769
:100A90004FF0FF3C06E000BF4FF0010C02E000BF4A
:100AA0004FF0010C4DF804CD4FEA410C7FEA6C5C2D
:100AB0004FEA430C18BF7FEA6C5C1BD001B050EAD0
:100AC000410C0CBF52EA430C91EA030F02BF90EABB
:100AD000020F0020704710F1000F91EA030F58BF7A
:100AE000994208BF90422CBFD8176FEAE37040F0DC
:100AF000010070474FEA410C7FEA6C5C02D150EA7A
:100B0000013C07D14FEA430C7FEA6C5CD6D152EA34
:100B1000033CD3D05DF8040B704700BF84461046F9
:100B200062468C461946634600E000BF01B5FFF7F8
:100B3000B7FF002848BF10F1000F01BD4DF808EDC8
:100B4000FFF7F4FF0CBF012000205DF808FB00BF99
:100B50004DF808EDFFF7EAFF34BF012000205DF8F3
:100B600008FB00BF4DF808EDFFF7E0FF94BF012040
:100B700000205DF808FB00BF4DF808EDFFF7CEFF41
:100B800094BF012000205DF808FB00BF4DF808ED80
:100B9000FFF7C4FF34BF012000205DF808FB00BF51
:100BA0004FEA410212F5001215D211D56FF4787395
:100BB000B3EB625212D94FEAC12343F0004343EA38
:100BC000505311F0004F23FA02F018BF4042704713
:100BD0004FF00000704750EA013005D111F000409D
:100BE00008BF6FF0004070474FF00000704700BF33
:100BF00070B48407034644D0541E002A3FD0CEB2BE
:100C000002E0002C3BD0144603F8016B13F0030FF5
:100C10001D4604F1FF32F4D1032C29D9CAB20F2C9E
:100C200084BF2B46264642EA022242EA024211D9FA
:100C3000103E1A605A609A60DA6010330F2EF7D8AF
:100C4000A4F1100304F00F0423F00F031033032C5E
:100C50001D440DD92E462346043B46F8042B032B96
:100C6000FAD8231F04F0030423F003030433ED1820
:100C70002CB1C9B22C1905F8011BA542FBD170BCDF
:100C8000704705461446C7E780EA010212F0030FD9
:100C900040F03A8010F0030220F0030021F003013D
:100CA00050F804CB08BF51F8043B0DD082F003028A
:100CB0004FEAC2026FF07F4323FA02F251F8043B7D
:100CC0004CEA020C43EA0203ACF101329C4501BF3D
:100CD00022EA0C0212F0803F50F804CB51F8043B9A
:100CE000F2D04FEA0C604FEA1C2C012828BFB0EB71
:100CF000036F08BF1B0AF4D003F0FF034FEA106034
:100D0000A0EB0300704700BF10F0030F0AD010F8EB
:100D1000012B11F8013B012A28BF9A42F4D0A2EB23
:100D2000030070474DF8045D4DF8044D4FF001028B
:100D300042EA022242EA024201F0030C21F00301DE
:100D400050F8044B51F8045BBCF1020F26D04BD88D
:100D500024F07F4CBCEB152FA4EB020323EA040321
:100D60000DD113EAC21308BF51F8045B0AD18CEA13
:100D7000040CBCEB056F0CD150F8044BE8E74FEACC
:100D800015255CE033F07F4352D10D784FEA146CA7
:100D900055E04FEA146C05F0FF0550E04FEA044CB3
:100DA000A4EB02034FEA1C4C23EA0403BCEB154FEF
:100DB00017D113EAC21308BF51F8045B07D18CEABC
:100DC000040CBCEB054F08D150F8044BE6E71B04BC
:100DD0002ED10D884FEA144C31E04FEA05454FEA19
:100DE000144C4FEA15452AE004F0FF0CBCEB156FDC
:100DF000A4EB020323EA04030DD113EAC21308BFD4
:100E000051F8045B0AD18CEA040CBCEB052F0AD123
:100E100050F8044BE8E74FEA156510E014F0FF0FB7
:100E200006D051F8045B4FEA142C25F07F4506E00C
:100E30004FF000005DF8044B5DF8045B70470CF068
:100E4000FF0205F0FF00012828BF904204BF4FEACF
:100E50001C2C2D0AF3D0A2EB00005DF8044B5DF8CA
:100E6000045B704720F0030110F00300C0F10000A4
:100E700051F8043B00F1040C4FEACC0C6FF0000277
:100E80001CBF22FA0CF213434FF0010C4CEA0C2C5D
:100E90004CEA0C4CA3EB0C0222EA030212EACC123D
:100EA00004BF51F8043B0430F4D013F0FF0F1FBF10
:100EB000013013F47F4F013013F47F0F18BF01305E
:040EC000704700BFB8
:100EC4003E4A002330B513603D4A4FF4004111609F
:100ED400116C21F0FF0141F00101116448321360EB
:100EE400384B196821F020011960196841F020017C
:100EF400196019684906FCD501231360324A00239E
:100F04001360324C324B5521AA200E25186019600B
:100F1400256018601960146844F0010414601860B6
:100F240019602C490B685D01FCD5136843F002037A
:100F34001360274BAA221A6055221A60254A1368A7
:100F44009C01FCD5244A00231360244C244B5521D6
:100F5400AA200725186019602560186019601468B4
:100F640044F001041460186019601E490B685805A8
:100F7400FCD5136843F002031360194BAA221A60CC
:100F840055221A60174A13689B05FCD5164B1A683C
:100F940022F00F0242F001021A6053F8042C22F0EE
:100FA400FF0242F0020243F8042C104A00231360AB
:100FB40053600F4B44F23A021A6030BD08ED00E072
:100FC400C4C00F40A0C10F4080C00F4084C00F4078
:100FD4008CC00F4088C00F40A0C00F40A4C00F4079
:100FE400ACC00F40A8C00F4008C10F40A8C10F40BB
:040FF40000C00F40EA
:100FF80010B572B6FFF762FF0A4C00230A4A0B4885
:1010080002E019599950043399188142F9D3084BD1
:10101800084A002101E043F8041B9342FBD300F087
:10102800E9FFFEE7D43D00000000001010000010AA
:0810380010000010C40C0010B0
:1010400008B50220044901F03BFE044B1A6812B1B6
:101050001B6832209847FEE78C37000060010010C3
:1010600008B50220044901F02BFE044B1A6812B1A6
:101070001B6831209847FEE79A3700006001001096
:1010800008B50220044901F01BFE044B1A6812B196
:101090001B6830209847FEE7A6370000600100106B
:1010A00008B50220044901F00BFE044B1A6812B186
:1010B0001B682F209847FEE7B23700006001001040
:1010C00008B50220044901F0FBFD044B1A6812B177
:1010D0001B682E209847FEE7BD3700006001001016
:1010E00008B50220044901F0EBFD044B1A6812B167
:1010F0001B682D209847FEE7C937000060010010EB
:1011000008B50220044901F0DBFD044B1A6812B156
:101110001B682C209847FEE7D637000060010010BE
:1011200008B50220044901F0CBFD044B1A6812B146
:101130001B682B209847FEE7E53700006001001090
:1011400008B50220044901F0BBFD044B1A6812B136
:101150001B682A209847FEE7F43700006001001062
:1011600008B50220044901F0ABFD044B1A6812B126
:101170001B6829209847FEE7003800006001001036
:1011800008B50220044901F09BFD044B1A6812B116
:101190001B6828209847FEE70B380000600100100C
:1011A00008B50220044901F08BFD044B1A6812B106
:1011B0001B6827209847FEE71838000060010010E0
:1011C00008B50220044901F07BFD044B1A6812B1F6
:1011D0001B6826209847FEE72338000060010010B6
:1011E00008B50220044901F06BFD044B1A6812B1E6
:1011F0001B6825209847FEE72F380000600100108B
:1012000008B50220044901F05BFD044B1A6812B1D5
:101210001B6824209847FEE73A3800006001001060
:1012200008B50220044901F04BFD044B1A6812B1C5
:101230001B6823209847FEE7453800006001001036
:1012400008B50220044901F03BFD044B1A6812B1B5
:101250001B6822209847FEE750380000600100100C
:1012600008B50220044901F02BFD044B1A6812B1A5
:101270001B6821209847FEE75B38000060010010E2
:1012800008B50220044901F01BFD044B1A6812B195
:101290001B6820209847FEE76638000060010010B8
:1012A00008B50220044901F00BFD044B1A6812B185
:1012B0001B681F209847FEE771380000600100108E
:1012C00008B50220044901F0FBFC044B1A6812B176
:1012D0001B681E209847FEE77E3800006001001062
:1012E00008B50220044901F0EBFC044B1A6812B166
:1012F0001B681D209847FEE78B3800006001001036
:1013000008B50220044901F0DBFC044B1A6812B155
:101310001B681C209847FEE7983800006001001009
:1013200008B50220044901F0CBFC044B1A6812B145
:101330001B681B209847FEE7A538000060010010DD
:1013400008B50220044901F0BBFC044B1A6812B135
:101350001B681A209847FEE7AD38000060010010B6
:1013600008B50220044901F0ABFC044B1A6812B125
:101370001B6819209847FEE7B9380000600100108B
:1013800008B50220044901F09BFC044B1A6812B115
:101390001B6818209847FEE7C53800006001001060
:1013A00008B50220044901F08BFC044B1A6812B105
:1013B0001B6817209847FEE7D13800006001001035
:1013C00008B50220044901F07BFC044B1A6812B1F5
:1013D0001B6816209847FEE7DC380000600100100B
:1013E00008B50220044901F06BFC044B1A6812B1E5
:1013F0001B6815209847FEE7E838000060010010E0
:1014000008B50220044901F05BFC044B1A6812B1D4
:101410001B6814209847FEE7F438000060010010B4
:1014200008B50220044901F04BFC044B1A6812B1C4
:101430001B6813209847FEE7003900006001001088
:1014400008B50220044901F03BFC044B1A6812B1B4
:101450001B6811209847FEE7183900006001001052
:1014600008B50220044901F02BFC044B1A6812B1A4
:101470001B680E209847FEE73F390000600100100E
:1014800008B50220044901F01BFC044B1A6812B194
:101490001B680D209847FEE74D39000060010010E1
:1014A00008B50220044901F00BFC044B1A6812B184
:1014B0001B680C209847FEE75B39000060010010B4
:1014C00008B50220044901F0FBFB044B1A6812B175
:1014D0001B680B209847FEE7693900006001001087
:1014E00008B50220044901F0EBFB044B1A6812B165
:1014F0001B680A209847FEE777390000600100105A
:1015000008B50220044901F0DBFB044B1A6812B154
:101510001B6808209847FEE7913900006001001021
:1015200008B50220044901F0CBFB044B1A6812B144
:101530001B6807209847FEE79F39000060010010F4
:1015400008B50220044901F0BBFB044B1A6812B134
:101550001B6806209847FEE7AF39000060010010C5
:1015600008B50220044901F0ABFB044B1A6812B124
:101570001B6805209847FEE7BA390000600100109B
:1015800008B50220044901F09BFB044B1A6812B114
:101590001B6804209847FEE7D03900006001001066
:1015A00008B50220044901F08BFB044B1A6812B104
:1015B0001B6803209847FEE7E03900006001001037
:1015C00008B50D49022001F07BFB0C49022001F017
:1015D00077FB0B49022001F073FB0A49022001F05E
:1015E0006FFB0220084901F06BFB084B1A6812B12F
:1015F0001B6802209847FEE7F1390000033A00001B
:10160000163A0000503A0000703A000060010010E5
:1016100008B50220044901F053FB044B1A6812B1CB
:101620001B6801209847FEE7B93A000060010010EE
:101630004309012200F01F0002FA00F09B0003F1B1
:0A164000604303F561431860704732
:10164C004209012300F01F0003FA00F0014B43F89C
:08165C002200704780E200E06B
:10166400002809DA00F00F020423043A92FBF3F293
:10167400074B9200D31805E020F0030303F1604305
:1016840003F56443C90000F00300C9B2195470475C
:0416940018ED00E06D
:0C169800014B1860704700BF600100109B
:1016A4000E4B01201A6842F080521A600C4B002243
:1016B4001A600C4B196841F478011960196841F0FB
:1016C40078411960084B09491960072143F8041C43
:1016D400074B1A60074B1A60704700BF80C009208F
:1016E4006401001020ED00E014E000E09F8601009A
:0816F4007001001068010010F4
:1016FC00034B01B901E01860024B1960704700BF41
:08170C00700100106C010010D7
:1017140008B5124B1A6801321A60114A116849B1AE
:101724001968104B1B68B1FBF3F003FB10130BB9E2
:10173400136898470C4B1A68B2F57A7F01D30022DC
:101744001A601A6801321A601B68B3F5617F8CBF96
:10175400064A074A4FF08053136008BD6801001021
:10176400700100106C0100106401001098C0092081
:041774009CC00920EC
:0817780001387FF4FDAF70475A
:10178000F8B5254B254C1A68002642F010021A6065
:10179000234B06271A68802142F080421A605A685B
:1017A00042F001025A601F4B26601A681E4A1F60F1
:1017B00011601E49B1FBF0F01D49C5B2000A0D6071
:1017C00020600125032010601D600A68194A384610
:1017D000126802221A6004221A60FFF729FF3846B5
:1017E0002946FFF73FFF144814494FF4967201F061
:1017F0007CFA134813494FF4967201F076FA124BB3
:1018000028461E80114B1E7023682B4323602368DB
:1018100023F002032360F8BDC4C00F400400014060
:1018200000C00240080001400C00014084D71700AE
:101830000000014014000140A402001078010010D3
:10184000DC030010B00200107601001074010010DB
:101850000F4B10B59A88044692B29AB1DB889BB2BE
:101860009BB10C4B1A6822F001021A6000BF0848B5
:1018700001F041FA074B20701A68012042F0010282
:101880001A6010BD6FF00B0010BD6FF00A0010BDA4
:08189000A40200100400014055
:1018980008B50A4B1A6822F001021A6000BF084B0B
:1018A80000221A80074B02221A60074801F065FAE5
:1018B800024B1A6842F001021A6008BD0400014098
:0C18C8007601001008000140A40200108E
:1018D400154B70B59B889BB203B3144CC6B22368F6
:1018E40023F00203236000BF0F48314601F023FABE
:1018F40023680A3043F002030C4D2360EFD00C4CF4
:10190400237873B9084801F0F4F90A4B18600120F0
:1019140020702B6843F002032B6070BD6FF00B0046
:1019240070BD012070BD00BFDC0300100400014045
:081934007401001000000140E5
:10193C00084B1A6822F002021A6000BF064B988806
:10194C00DA88044B801A196880B241F002011960E0
:0C195C00704700BF04000140DC030010D5
:10196800044B186800F06000B0F16002504250412A
:08197800704700BF140001409C
:1019800038B50C460546FFF7D9FF844204D96FF0FD
:10199000090038BD013CA4B234B115F8010BFFF7C2
:0C19A00099FF0028F6DAF2E7012038BDBC
:1019AC00F8B5234E234C3368DA073CD403F00E030E
:1019BC000C2B32D8DFE803F034312C3109310731EC
:1019CC003131313109001C4B2BE01C4D1A4F216871
:1019DC001B48C9B201F0ABF90A3003D12B88013393
:1019EC009BB22B803B68D807F1D4DCE7154801F09B
:1019FC00BBF940B1144B00221A70144B1A6822F038
:101A0C0002021A60CFE70F4801F06FF9206000E086
:101A1C00094D2B689906E9D4C5E7074B1B68236869
:101A2C000B4B1B68BFE70620BDE8F840FFF708BE6C
:101A3C000800014000000140140001407601001034
:101A4C00A4020010DC03001074010010040001401B
:041A5C00180001402D
:101A6000064B80221A60064AB2FBF0F0054AC1B26A
:101A7000000A1160506003221A6070470CC00940D0
:081A800084D7170000C00940E3
:101A8800F8B51E4B1E4C1A681E4D42F000721A60C3
:101A98001D4B00261A68012742F00A021A602660C8
:101AA8002B6806232B60FFF7D7FF184B2F601B68A6
:101AB800174B08201B6802232B6004232B60FFF7B9
:101AC800B3FD08203146FFF7C9FD124812494FF40B
:101AD800967201F006F9114811494FF4967201F017
:101AE80000F9104B38461E800F4B1E7023683B438D
:101AF8002360236823F002032360F8BDC4C00F40AD
:101B080004C0094008C0094000C0024000C00940A4
:101B180014C0094050060010F5030010E803001037
:0C1B2800210500104E060010F403001010
:101B34000F4B10B59A88044692B29AB1DB889BB2D7
:101B44009BB10C4B1A6822F001021A6000BF0848CE
:101B540001F0CFF8074B20701A68012042F001020F
:101B64001A6010BD6FF00B0010BD6FF00A0010BDBD
:081B74005006001004C00940F6
:101B7C0008B50A4B1A6822F001021A6000BF084B24
:101B8C0000221A80074B02221A60074801F0F3F872
:101B9C00024B1A6842F001021A6008BD04C00940E9
:0C1BAC004E06001008C009405006001052
:0C1BB800014BD88880B270475006001026
:101BC400154B70B59B889BB203B3144CC6B2236803
:101BD40023F00203236000BF0F48314601F0ABF845
:101BE40023680A3043F002030C4D2360EFD00C4C01
:101BF400237873B9084801F07CF80A4B1860012077
:101C040020702B6843F002032B6070BD6FF00B0053
:101C140070BD012070BD00BFE803001004C009407E
:081C2400F403001000C00940A8
:101C2C00084B1A6822F002021A6000BF064B988813
:101C3C00DA88044B801A196880B241F002011960ED
:0C1C4C00704700BF04C00940E80300100E
:101C5800044B186800F06000B0F160025042504137
:081C6800704700BF14C00940E1
:101C700038B50C460546FFF7D9FF844204D96FF00A
:101C8000090038BD013CA4B234B115F8010BFFF7CF
:0C1C900099FF0028F6DAF2E7012038BDC9
:101C9C00F8B5224E224C3268D3073AD402F00E0229
:101CAC00023A204B0A2A31D8DFE802F02B300830F8
:101CBC0006303030303008001B68ECE71A4D194FF5
:101CCC0021681A48C9B201F032F80A3003D12B88C6
:101CDC0001339BB22B803B68D807F1D4DBE7144867
:101CEC0001F042F840B1134B00221A70124B1A68E3
:101CFC0022F002021A60CEE70D4800F0F6FF2060D9
:101D0C0000E0084D2B689906E9D4C4E71B682368EA
:101D1C00C1E70820BDE8F840FFF792BC08C00940B5
:101D2C0000C0094014C009404E06001050060010B7
:0C1D3C00E8030010F403001004C009408C
:101D4800F8B5234B234C1A68002542F008021A60A4
:101D5800214B80211A68022742F050021A601F4B5B
:101D680025601A6806221A601D4A11601D49B1FBD8
:101D7800F0F01D49C6B2000A0E602060012603205B
:101D880010601E600A68194A0520126804221F6044
:101D98001A60FFF749FC05203946FFF75FFC144835
:101DA80014494FF4967200F09CFF134813494FF4FE
:101DB800967200F096FF124B30461D80114B1D7035
:101DC800236833432360236823F002032360F8BDAC
:101DD800C4C00F4004C0004000C0024008C000401A
:101DE8000CC0004084D7170000C0004014C0004059
:101DF8008C070010A4070010980700105C0600105C
:081E08008A0700108807001092
:101E10000F4B10B59A88044692B29AB1DB889BB2F8
:101E20009BB10C4B1A6822F001021A6000BF0848EF
:101E300000F061FF074B20701A68012042F0010298
:101E40001A6010BD6FF00B0010BD6FF00A0010BDDE
:081E50008C07001004C00040E3
:101E5800154B70B59B889BB203B3144CC6B223686C
:101E680023F00203236000BF0F48314600F061FFF2
:101E780023680A3043F002030C4D2360EFD00C4C6A
:101E8800237873B9084800F032FF0A4B1860012024
:101E980020702B6843F002032B6070BD6FF00B00BD
:101EA80070BD012070BD00BF9807001004C000403D
:081EB8008807001000C0004083
:101EC000044A13689B06FCD5034BC0B2186001207E
:0C1ED000704700BF14C0004000C000407C
:101EDC00F8B5224E224C3268D3073AD402F00E02E7
:101EEC00023A204B0A2A31D8DFE802F02B300830B6
:101EFC0006303030303008001B68ECE71A4D194FB3
:101F0C0021681A48C9B200F012FF0A3003D12B889D
:101F1C0001339BB22B803B68D807F1D4DBE7144824
:101F2C0000F022FF40B1134B00221A70124B1A68BA
:101F3C0022F002021A60CEE70D4800F0D6FE2060B7
:101F4C0000E0084D2B689906E9D4C4E71B682368A8
:101F5C00C1E70520BDE8F840FFF772BB08C00040A0
:101F6C0000C0004014C000408A0700108C0700100D
:0C1F7C00980700108807001004C0004007
:101F88002DE9F04772B6154CDFF860900A28B4BF07
:101F980007460A274FF00008C4F80080DFF850A071
:101FA80014E04FF000564FF48005C9F800600C4863
:101FB800CAF80050FFF7DCFB0A4B09481E6043F8DB
:101FC800805CFFF7D5FB2368013323602368BB429D
:101FD800E7DB0548FFF7CCFBDEE700BFD0080010C1
:101FE800C8267F009CC00920089FFC0198C00920D2
:041FF80018C00920E4
:101FFC0010B52D48FFF74AFB2C4800F04DFE2C483D
:10200C0000F03EFE2B4800F041FE4FF4E130FFF7AC
:10201C0095FE294B01241A6842F004021A60274AE3
:10202C00116841F080711160116841F40001116078
:10203C00196841F040011960196841F020011960DC
:10204C00196841F010011960196841F00801196014
:10205C00116841F4800111601A6842F001021A60A3
:10206C00DC611A6C42F000521A6400F087F8FFF73A
:10207C0013FB21461248FFF73BFB124B186800F08C
:10208C0099F962B61049204600F014FE0F4920461B
:10209C0000F010FE20460E4900F00CFE00F002FB92
:1020AC0000F0EAF9FAE700BF891F0000111E0000DA
:1020BC00591E0000C11E000040C0092020C009208C
:1020CC00E121000010000010D13D0000C43A0000D6
:0420DC001E3B0000A7
:0C20E000014B5860704700BF100000105A
:1020EC0010F0010F204B14BF204A214A986010F0C9
:1020FC00020F4FF00403136014BF1E4A1E4A4FF028
:10210C00807310F0040F136014BF1A4A1A4A4FF46C
:10211C00000310F0080F136014BF144A144A4FF058
:10212C00400310F0100F136014BF104A104A4FF008
:10213C00200310F0200F136014BF0C4A0C4A4FF010
:10214C00100310F0400F136014BF084A084A4FF0F8
:10215C00080310F0800F136014BF064A064A4FF4B0
:10216C0080031360704700BF1000001058C0092096
:0C217C005CC0092038C009203CC00920CC
:102188002DE9F047134D0A23EB60002401232B604F
:10219800A0464FF0140AA9460AFB04970026052218
:1021A80007F11A003146C5F81080013425F8148F5C
:1021B800FEF71AFD07F11F00032231461837FEF714
:1021C80013FD102CE8D1034B3D205E60BDE8F047BD
:0821D800FFF788BF10000010A2
:1021E000054B10B501241C6000F0A4FF01F0A4F819
:1021F000024B1C6010BD00BF58C009205CC0092004
:10220000084B4FF4003210B51A60FFF7B9FB0446D3
:10221000FFF7AAFB0028FBD0034B4FF400321A60F3
:0C222000204610BD18C009201CC0092079
:10222C00074B022210B51A60FFF71CFD0446FFF79E
:10223C000DFD0028FBD0034B02221A60204610BD76
:08224C0058C009205CC0092004
:10225400531E772B2DE9F0434AD82F4CA0F580600C
:102264005200002540F2014C142740F2024840F28B
:1022740003493F2800F5806305D803F0030386086B
:1022840003F5806300E00026B3F5007F1CD007D877
:10229400012B33D02FD3022B11D0102B28D111E0D6
:1022A400634519D006D8B3F5407F0FD0B3F5806FDE
:1022B4001ED10DE0434513D04B4519D114E043F230
:1022C40032131DE0A3891BE0A38819E0238917E0DA
:1022D40007FB0646338A13E007FB0646B38A0FE082
:1022E40007FB0646F38A0BE007FB0646338B07E041
:1022F4000220BDE8F08347F2682301E043F2301383
:102304001E0A4E554E190235013095427370B0D1F4
:0C2314000020BDE8F08300BF10000010A6
:10232000B0F5007F08B50AD0B0F5407F0BD010287B
:102330000DD14B1E0F2B0DD8074BD9600AE0084674
:10234000FFF7CEFE06E00846FFF7D0FE02E04FF0B2
:0C235000FF3008BD002008BD1000001088
:10235C0008B5FFF7DFFF421C07D0831C07D010F134
:10236C00030F0CBF0420002008BD022008BD032071
:02237C0008BD9A
:10237E00531E772B70B5044618D80D4616186B7879
:10238E002978204643EA0121FFF7C3FF431C0DD0F5
:10239E00811C07D0033007D001340235B442EED190
:1023AE00002070BD032070BD042070BD022070BDE2
:1023C00007B5174B17490093174A184B00F0E2FE68
:1023D00017491848184A00F0F1FE184B4FF46140B5
:1023E0001A6842F002021A600222DA61FFF74CFB1F
:1023F0001349144A144800F067FD40F6B83000F065
:102400007DFD124B4FF461401A6842F400321A60AD
:102410004FF40032DA6103B05DF804EBFFF7B0B9B6
:102420007D1B00002D220000351B0000B91B0000A1
:102430005D230000552200007F23000040C00920DA
:1024400051180000991800000122000000C0092066
:1024500010B5094C23686BB9084B03221970022987
:102460000CBF4FF400710021054B00F059FD01280D
:1024700008BF206010BD00BFD8080010D4080010AD
:04248000DC08001064
:1024840070B5364C00F0A2FE00F086FD23687BB9DF
:10249400334B34491A68C9688A4201D3012200E0E7
:1024A40001321A6018680221BDE87040FFF7CEBF00
:1024B40000F028FD10F1860F4ED000222A4B9042E6
:1024C40022601B7815DA022B46D18230244B254C2E
:1024D40008D11D6800F01CFD013D142303FB0544D5
:1024E400206170BD1B681421013B01FB0344226180
:1024F40070BD012B1CD11A4B1A4C1B681425013BCF
:1025040005FB0343194903F1180508884E8898769A
:102514001E77000A360A03F11904D8765E7703F1B0
:102524001A009A778B88EB711B0AE371C27170BD34
:10253400022B11D10A4B0B4A1B681421013B01FBEE
:10254400032305221A61094A108800F01F009882AB
:1025540050889288D8821A8370BD00BFD8080010B2
:102564000400001010000010D4080010DC08001053
:1025740073B52749012000F0A1FB2549012000F093
:102584009DFB2449012000F099FB2349012000F020
:1025940095FB1F49012000F091FB204E20490120AA
:1025A40000F08CFB1F494FF46142012000F086FBD0
:1025B40034461D494FF46142012000F07FFB54F87A
:1025C400102B1A49012000F079FB1149012000F079
:1025D40075FB0120164900F071FB002511E034F869
:1025E400103C0135009334F80C2C34F80E3C0120D7
:1025F40043EA024301930F492A4654F8143C00F07D
:102604005DFBF36814349D42E9D301207CBD00BF17
:10261400D13D00008C3B00001E3B00001000001068
:10262400E63B0000EE3B0000043C0000213C0000BF
:08263400333C0000403C0000B3
:10263C0073B5184B0E46084601A99D6800F09EFB29
:10264C0030B3019C013C072C14D870681249FEF77A
:10265C0015FB012380B915E0FFF742FD0E4C0F4B23
:10266C0002200F49019A002E18BF234600F022FBCE
:10267C0001200DE000200BE003FA04F4002625EA0B
:10268C000400E9E703FA04F41E4644EA0500E3E714
:10269C007CBD00BF10000010AC390000053D0000EF
:0426AC00733C00007B
:1026B00070B51B4828211B4A00F048FE1A4C2060C8
:1026C000A0B11A4D1A4E282215482946334600F06B
:1026D00005FF10F13C0F00D106E02B6843B115480F
:1026E00031682A4600F070FF206001E0012323607A
:1026F0000D4B114A1B6813F13C0F136003D043B11B
:102700003F330CD102E001200C4904E001200C49C8
:1027100001E00C490120BDE8704000F0D1BA70BD65
:10272000FC090010933C0000D0090010D4090010EF
:10273000CC0900103C3B0000240A0010973C00002C
:08274000A53C0000B63C0000BE
:10274800026838B522B14368D1540133436038BDBB
:10275800027B104B013A062A14D8DFE802F004067F
:10276800080A0C0E10000C4A0AE00C4A08E00C4A51
:1027780006E00C4A04E00C4A02E00C4A00E00C4A6D
:1027880012681A60034D0CB22B682046984700283F
:10279800FADB38BD340A00102C0A0010440A001075
:1027A800480A0010280A00103C0A0010380A0010D5
:0427B800300A0010D3
:1027BC0038B5047A0546641A04E02846697AFFF7AE
:0A27CC00BDFF013C002CF8DC38BD15
:1027D60070B50B1E90B0054602DA5B42012100E09F
:1027E600002100220A2600E0224693FBF6F006FBB3
:1027F600103330330DF80230541C03460028F3D151
:1028060029B110AB1C192D2304F8403C941C284612
:102816002146FFF7D0FF04E028461DF80410FFF715
:0C28260090FF14F1FF34F7D210B070BD29
:1028320070B50C1E90B0064603DA2D21FFF783FF18
:10284200644200250A2294FBF2F302FB1344303463
:102852000DF8054001351C46002BF4D130462946BF
:10286200FFF7ABFF04E030461DF80510FFF76BFFE2
:0A28720015F1FF35F7D210B070BD6C
:10287C002DE9F0411946064690461F4610460023A6
:10288C000022FEF75FF928B130462D21FFF756FFE5
:10289C0007F1004739464046FEF77CF904462146CD
:1028AC003046FFF7C0FFB37A002B35D030462E21CF
:1028BC00FFF744FF002333722046FDF76BFE024600
:1028CC000B4640463946FDF717FD04460D460DE014
:1028DC00124BFDF7C5FE0022114B04460D46FEF7C8
:1028EC0031F918B130463021FFF728FFB37A204672
:1028FC005A1EB27229460022002BE9D1084BFEF772
:10290C003FF948B129462046FEF744F901463046C6
:10291C00BDE8F041FFF787BFBDE8F081000024401F
:04292C000000F03F78
:102930002DE9F04F002395B004460F46164643603C
:10294000DFF8449301E000234746B84618F8015BDE
:10295000002B00F077816C2D01D04C2D0CD17B78B1
:10296000642B09D1316806F1040A2046FFF761FFA4
:1029700007F10208564676E1642D34D015D8552D5E
:1029800035D00CD8442D2ED005D8252D21D0432D5F
:1029900040F03B8123E0532D40F037816AE0622D07
:1029A00000F0BD801BD8582D10E0732D62D008D8E0
:1029B000662D00F0CF80C0F0D8806B2D40F02581CF
:1029C0006EE0752D13D0C0F08980782D40F01D8108
:1029D0002AE029462046FFF7B7FE354647E1351D78
:1029E0002046317877E0351D204631680AE1351DF3
:1029F00033680A210026B3FBF1F201FB123304A86D
:102A00003033335401361346002AF4D12046314680
:102A1000FFF7D4FE04E004AB2046995DFFF794FE77
:102A200016F1FF36F7D222E13268944B351D6F461E
:102A3000186859683E4603C608334B453746F7D1F8
:102A4000002602F00F0314A9CB1813F8501C04AB96
:102A5000F15401361209F4D120463146FFF7AEFE9B
:102A600004E004AB2046995DFFF76EFE16F1FF36D9
:102A7000F7D2FCE03768351D002F00F0F880002603
:102A800004E0204651460136FFF75EFE16F807A027
:102A9000BAF1000FF5D120463146FFF78FFEE6E090
:102AA000351D3168002601E089120136B1F5205F3D
:102AB000FADC2046FFF78FFE012E02D120466B2163
:102AC00009E0022E02D120464D2104E0032E40F001
:102AD000CE8020464721FFF737FEC8E0D6F800A099
:102AE000351D3C269AFBF6F70223237297FBF6FB73
:102AF0003023637220465946FFF76DFE20463A2187
:102B0000FFF722FE204606FB1B71FFF764FE2046FE
:102B10002721FFF719FE204606FB17A172E030229D
:102B20003368351D6272002603F00101303104AABA
:102B3000B15401365B10F7D120463146FFF73EFE17
:102B400004E004AB2046995DFFF7FEFD16F1FF3669
:102B5000F7D28CE0073626F007062046D6E9002398
:102B600006F10805FFF78AFE81E0073626F0070325
:102B700093E8400403F10805304651460022002343
:102B8000FDF7E6FF28B120462D21FFF7DDFD0AF114
:102B9000004A3046514600220023FDF7CFFF58B1CE
:102BA000002724E0304651460022354BFDF75EFDFC
:102BB000013F06468A4600E007463046514600225D
:102BC000304BFDF7C5FF0028ECD108E030465146F8
:102BD00000222B4BFDF774FE013706468A4630462D
:102BE00051460022264BFDF7D1FF0028EED12046AA
:102BF00032465346FFF742FE20464521FFF7A4FD2B
:102C000020463946FFF7E7FD31E0302D03D1237A26
:102C10004BB965721DE02E2D05D17B7807F10208B6
:102C2000303BA37215E0A5F13003092B07D8237AB6
:102C30000A2202FB0355303D2572012384E620461B
:102C40003F210EE0252D07D123720523A3722023F7
:102C50006372354601230BE00DB9E37A53B1204688
:102C60002946FFF771FD002D7FF46DAE02E00023D1
:102C70002E4669E615B0BDE8F08F00BF5C36000057
:0C2C8000000024400000F03F6C36000013
:0C2C8C00014B1860704700BF2C0A0010BC
:0C2C9800014B1860704700BF440A001098
:0C2CA400014B1860704700BF400A001090
:102CB00008B5024B1B68984708BD00BF400A0010CA
:102CC0000EB43FB507AA52F8041B00238DF8140078
:102CD00002A802938DF813300192FFF729FE01201C
:0A2CE00006B05DF804EB03B0704786
:0C2CEA000023016082800381C3807047DA
:102CF6000346C08810B580B2D8B119681A8992B255
:102D0600885C1A89013292B21A8119899A8889B225
:102D160092B2914209D319899A8889B292B2B1FBCB
:102D2600F2F402FB141292B21A81DA88013A92B2D4
:042D3600DA8010BD72
:102D3A00C288838892B29BB29A4230B512D2046892
:102D4A000589C2888388ADB292B2AA189BB292FB57
:102D5A00F3F503FB1523E154C38801339BB2C38007
:0A2D6A00012030BD6FF0090030BDFC
:0E2D7400C08880B2D0F1010038BF0020704747
:062D82000023C38070472E
:102D880070B501E00132026002681378202BF9D097
:102D98002D2B04D1531C03605378012600E0002634
:102DA800302B1CD10268531C03605378202B02D8A7
:102DB80000230B6036E0782B04D1931C03609378D2
:102DC800102413E0622B04D1931C0360937802242F
:102DD8000CE0A3F13002092A07D9002070BDA3F145
:102DE8003102082AF9D80A2400E00824002214E055
:102DF800602B01D9203BDBB2A3F13005EDB2102DD9
:102E080003D9373BDDB2092DE7D9A542E5D20368DE
:102E180004FB02525D1C05605B78202BE8D806B1E4
:082E280052420A60012070BD56
:102E300070B5102500246400013D02F00106A4B223
:102E4000ADB234435208002DF5D141180246184660
:102E50000EE012F8013B5840082310F0010F4FEA32
:102E6000500080B218BF6040013B9BB2002BF4D1F0
:062E70008A42EED170BDA4
:0C2E760048F205024FF6FF73FFF7D7BFCC
:102E84000F4B197CD3F81021914210D15A7CD3F8FE
:102E9400141102F07F0088420CD102F08002D2B2F9
:102EA4005AB19A7C6FF08100C3F8382170476FF0F3
:102EB4007E0070476FF0800070470120704700BFAC
:042EC400500A0010A0
:102EC8000B4B83E807000022C3F81C21C3F810212C
:102ED800C3F81421C3F83421C3F82421C3F82821E6
:102EE800C3F81821C3F83821C822C3F82021704735
:042EF800500A00106C
:0C2EFC00014BD860704700BF500A001066
:0C2F0800014BD3F834017047500A001050
:0C2F1400014BD3F838017047500A001040
:102F2000F8B51D4C0F46D4F81861154696BB032220
:102F3000C4F824316FF08503C4F81421C4F81001DB
:102F4000C4F83431C4F82851A3689847D4F8103134
:102F500006212374D4F8143104F1100063743B1279
:102F6000A3742B122375E7746575FFF784FFA075B2
:102F7000000AE0752046082150F8103B98470028C9
:102F800004DA6FF07A03C4F8343103E00120C4F8A6
:0C2F90001801F8BD0020F8BD500A001028
:102F9C0073B5624CD4F8183143B9614A1360614B74
:102FAC0001221A60E368C4F81C31B6E063680DF1C5
:102FBC0007009847012810D15A4B00221A60584A32
:102FCC001368FF2B2DDCE1189DF80700013313600B
:102FDC00C8230874C4F820319FE0D4F82031002BAA
:102FEC0040F09B804F4B1B68A3B94D4D29680229BB
:102FFC001ADD04F110000239FFF737FF2B68E418D3
:10300C00E27BA37B43EA0223834218BF6FF0790370
:10301C000ED10CE0D4F81C31002B7ED16FF07B0369
:10302C0006E06FF07C0303E06FF07D0300E001230A
:10303C00002B3A4C05DAC4F834310023C4F81831AB
:10304C006BE0D4F81431032B29D1FFF715FF0128BD
:10305C0060D1D4F82821A17C0023B1EB420FC4F835
:10306C001431C4F8183117D1D4F82411133408E0F2
:10307C0014F8026C14F8015C45EA062521F813508B
:10308C00013302349342F3DB22EAE272234B01EB6D
:10309C004201C3F824113DE06FF082003AE0062BA8
:1030AC0017D1FFF7E9FE012834D10023C4F81431FD
:1030BC00C4F81831A27CE37C43EA0222D4F82C3108
:1030CC00934225D1217D637DB4F8302143EA01235D
:1030DC0018E0102B21D1FFF7CFFE01281AD10023C5
:1030EC00C4F81431C4F81831A27CE37C43EA022200
:1030FC00D4F82C3193420BD1227D637D43EA022319
:10310C00D4F828219A420CBF01206FF0830001E013
:10311C006FF07F00014BC3F834017CBD500A0010E6
:08312C004C0A0010080000101D
:10313400094BD3F81C2122B1D3F81C21013AC3F85E
:103144001C21D3F82031044A23B1D2F82031013BA9
:0C315400C2F82031704700BF500A001084
:1031600038B50B4C0321236804F118052376D4F8F5
:103170001831A076803B28466376FFF77CFEE07628
:10318000000A2077636828460521984738BD00BFAC
:043190008C0B001094
:1031940010B5084C84E80F00029B23610023C4F897
:1031A4001C316361C4F82031C4F82431C4F82831D7
:0831B40010BD00BF8C0B0010E0
:1031BC00034BC3F82001C3F82411C3F8282170472E
:0431CC008C0B001058
:1031D00073B5564CE368984710B9C4F81C01A4E0D5
:1031E000D4F81C31834204D06423C4F81C01636109
:1031F0009AE06569002D40F09780C4F81C5126467E
:1032000007E0B5F5807F21D09DF8072073191A7665
:103210000135B3680DF1070098470128434CF0D001
:10322000032D13DD023D04F118002946FFF723FEAC
:1032300063195A7E1B7E43EA0223984206D1002D71
:1032400004DD227E236825469A4203D0374B1B6952
:10325000984769E0637E032BC4F8183127D1D4F86E
:103260002031002B58D0627F257F214602EB0525B7
:10327000A07E11F81B2F02EB00202A469847002859
:103280004BD123686D002376D4F81831E91C63769E
:10329000A57604F11800FFF7EEFD6319D876691DD5
:1032A000000A187789B2636804F1180014E0062B4D
:1032B00014D1D4F82431002B2ED0257F617FA07E3D
:1032C000E27E01EB052102EB002089B2984720BB8A
:1032D000636804F118000821984720E0102B1BD1E7
:1032E000D4F82831C3B1A07EE17E6A7F247F02EB4F
:1032F0000422AC7FB4EB420F0ED101EB00200C494D
:10330000984750B90B480621FFF7B5FDA877000A8A
:10331000E8776B680748DEE70120FFF721FF034BE2
:103320001B699847012000E000207CBD8C0B001039
:08333000AB0B0010A40B001010
:10333800034B5A6912B15A69013A5A61704700BF82
:043348008C0B0010DA
:10334C0070B5344D04462B780E4643B101203249FA
:10335C00FFF7B0FC314B1C60002323702B70304DF9
:10336C002846FFF79FFC012852D12B780D2B0BD050
:10337C0004D8082B14D00A2B33D105E0152B25D0FB
:10338C002FD3FE2B2DD328E001202649FFF792FCEA
:10339C00204B012220461A70BDE87040FDF75CBD41
:1033AC001E4A1368A3424FF0000431D9591E116014
:1033BC0003F8014C1C49FFF77DFC29E001201A4958
:1033CC00FFF778FC2B68013B2B6000E0134D2B685A
:1033DC00A342F3D10020207070BD237000236370D2
:1033EC0070BD0E48013E0268A419A24210D21F2BD8
:1033FC000ED97E2B4FF000040AD8114601F8013B80
:10340C00074B01605470012008491A78FFF752FCF1
:10341C00002070BD0C0000103C3D0000BC0C0010E6
:10342C00C00C0010D13D00003F3D0000433D0000AA
:10343C002DE9F04120218AB002A80A46FDF7D2FB03
:10344C001F4B00241E68254604E0FDF705FD854250
:10345C00B8BF05461434331953F8140C0028F4D1B2
:10346C000AAA551905F8200CDFF85480054618E017
:10347C00B7792046012F08D1FDF7EEFC02AA1318EC
:10348C00F268384600920F4907E0FDF7E5FC02AA06
:10349C001318F2680C49009201202246FFF70AFC2F
:1034AC001435D8F800305C595E19002CE0D101209D
:1034BC000649FFF7FFFB01200AB0BDE8F08100BF11
:1034CC00B80C0010463D0000523D0000683D000065
:1034DC002DE9F84305460E464FEA920891461F46E1
:1034EC00FDF7BAFC01382C1808F1FF3832490020DE
:1034FC0000E06070AC4202D22F4B1A680CE014F85A
:10350C000139002BF8D00A68D3185B7803F0080354
:10351C00DBB2002BEDD1EFE72C4615F8013B33B1B4
:10352C00D3185B7803F00803DBB2002BF4D1002531
:10353C004A463D6030462946FDF754FB2A461E4B51
:10354C0028462FE0032AFDD8DFE802F0020A1826ED
:10355C0019684D19697801F00801C9B209B31EE068
:10356C003A6846F8044B013242453A6020D014F8D0
:10357C00012B222A14BF0222032213E019684919D5
:10358C00497801F00801C9B211B12070002206E09F
:10359C00222D08BF032202E0222D08BF0222013493
:1035AC0000E001222578002DCCD10120BDE8F88364
:0C35BC006FF03B00BDE8F8830000001039
:1035C800F8B51F4F04460E4615463C6032E02968A0
:1035D800FDF756FB00282CD1022E0BD1686819493B
:1035E800FDF74EFB30B9012017492269FFF764FB4C
:1035F8000120F8BD2279964206DC01201349FFF725
:103608005BFB6FF03D00F8BDA379701E1BB9A46881
:1036180006460435D9E76279904206DD01200C4957
:10362800FFF74AFB6FF03C00F8BDA368291D9847D7
:10363800F8BD143420680028C9D16FF03E00F8BDE9
:10364800B80C0010933D0000643D0000953D00005B
:04365800B63D00007B
:10365C0030313233343536373839414243444546BC
:10366C0053554E004D4F4E005455450057454400A0
:10367C005448550046524900534154000020202024
:10368C002020202020202828282828202020202006
:10369C0020202020202020202020202020881010D6
:1036AC001010101010101010101010101004040432
:1036BC0004040404040404101010101010104141F0
:1036CC0041414141010101010101010101010101DE
:1036DC0001010101010101011010101010104242F2
:1036EC0042424242020202020202020202020202AE
:1036FC00020202020202020210101010200000004E
:10370C0000000000000000000000000000000000AD
:10371C00000000000000000000000000000000009D
:10372C00000000000000000000000000000000008D
:10373C00000000000000000000000000000000007D
:10374C00000000000000000000000000000000006D
:10375C00000000000000000000000000000000005D
:10376C00000000000000000000000000000000004D
:10377C00000000000000000000000000000000003D
:10378C0076696345727220656570726F6D0076693B
:10379C00634572722070776D300076696345727282
:1037AC00206770696F00766963457272206C636480
:1037BC0000766963457272207373703200766963A8
:1037CC004572722075617274340076696345727249
:1037DC002043414E20414354007669634572722068
:1037EC0055534220414354007669634572722070F0
:1037FC006C6C310076696345727220716569007674
:10380C006963457272206D6370776D0076696345EC
:10381C007272207269740076696345727220656EEB
:10382C00657400766963457272206932730076693B
:10383C006345727220646D61007669634572722013
:10384C0063616E00766963457272207573620076EF
:10385C00696345727220626F6400766963457272A7
:10386C0020616463007669634572722065696E74C9
:10387C0033007669634572722065696E7432007626
:10388C0069634572722065696E74310076696345AF
:10389C0072722065696E74300076696345727220AD
:1038AC000076696345727220706C6C3000766963C7
:1038BC0045727220737070310076696345727220A4
:1038CC007370703000766963457272207370690092
:1038DC00766963457272206932633200766963459A
:1038EC0072722069326331007669634572722069A5
:1038FC00326330007669634572722070776D0076A2
:10390C006963457272207561727433007669634520
:10391C00727220756172743200766963457272201E
:10392C0075617274310076696345727220756172CB
:10393C007430007669634572722074696D657233F8
:10394C00007669634572722074696D657232007617
:10395C0069634572722074696D65723100766963B2
:10396C004572722074696D657230007669634572B8
:10397C007220776474007669634572722073797370
:10398C005469636B007669634572722070656E646E
:10399C005356007669634572722064656275674D93
:1039AC006F6E007669634572722073766300766978
:1039BC00634572722075736167654661756C745FDF
:1039CC004953520076696345727220627573466181
:1039DC00756C7400766963457272206D656D4D610E
:1039EC006E61676500766963457272206861726406
:1039FC004661756C740A00506F73736976656973F0
:103A0C00206361757361733A0A002020416365730A
:103A1C00736F206120756D206861726477617265C7
:103A2C00206EE36F206C696761646F206F75206393
:103A3C006F6D20636C6F636B206465736C69676179
:103A4C00646F0A00202041636573736F2061206DE1
:103A5C00656DF372696120696E6578697374656E62
:103A6C0074650A0020205265676973747261646F13
:103A7C0072206163657373616E646F2070696E6F21
:103A8C0020492F4F2061706F6E74616E646F2070CF
:103A9C0061726120647561732066756EE7F56573FC
:103AAC00206469666572656E7465730A0076696375
:103ABC00457272204E4D490048617264776172659F
:103ACC00205265736F757263652068723031207196
:103ADC00756164726F206363206D6F6432202D20DA
:103AEC006669726D776172652076322E31205B6368
:103AFC006F6D70696C656420696E2041756720314B
:103B0C003720323031362031313A32363A35365D63
:103B1C000A0075634C6962632076657273696F6E17
:103B2C002075435F6C696263322E380A0000000016
:103B3C00D63C0000000001003D340000DB3C0000DE
:103B4C0000000000F33C0000020201003D260000D2
:103B5C00F93C0000093D00001F3D00000000010081
:103B6C0075250000233D000000000000000000004F
:103B7C000000010000000000000000000000000038
:103B8C004861726477617265205265736F757263F8
:103B9C006520687230312071756164726F206363C7
:103BAC00206D6F6432202D206669726D77617265AD
:103BBC002076322E31205B636F6D70696C656420EA
:103BCC00696E204175672031372032303136203113
:103BDC00313A32333A32365D0A004D4F4442555336
:103BEC000A00202020426175647261746520534282
:103BFC0043203D2025640A00202020426175647218
:103C0C00617465204D756C74696D65746572203DC9
:103C1C002025640A00202020536C617665204944DD
:103C2C00203D2025640A004D554C54494D455445C2
:103C3C0052530A002020204D554C54494D455445B3
:103C4C00525B25645D3A20737473436F6D3D30781D
:103C5C002578207374733D30782578202076616C3C
:103C6C0075653D25640A007365742072656C617915
:103C7C00202564203D2025732028616374203D207D
:103C8C0030782578290A00243E2000537973746516
:103C9C006D206572726F720A00556E6B6E6F776E67
:103CAC0020636F6D6D616E640A004572726F7220D5
:103CBC00696E20657865637574696E6720746865D4
:103CCC0020636F6D6D616E640A0068656C700044F2
:103CDC006973706C61797320746869732068656CA2
:103CEC0070206C6973740072656C61790072656C1C
:103CFC006179206F6E206F72206F66660072656C42
:103D0C006179203C312E2E383E203C6F6E2F6F6631
:103D1C00663E007374730053686F777320616C6C2C
:103D2C0020737461747573206F662074686520004D
:103D3C002573000820080025630025732573202DAA
:103D4C002D2025730A0025732573202D2D20535506
:103D5C00424C495354202D2025730A000A55736593
:103D6C0020273C636F6D6D616E643E203F2720748D
:103D7C006F2073686F772069747320706172616D46
:103D8C0065746572730A003F004D697373696E67E1
:103D9C0020617267756D656E74732028726571751C
:103DAC0069726573202564290A004D616E79206162
:103DBC007267756D656E747320286D6178696D75A9
:073DCC006D202564290A00A7
:0D3DD4008836000001000000010000000121
:00000001FF
